{
  "contractName": "CertificationNFT",
  "abi": [
    {
      "inputs": [],
      "stateMutability": "nonpayable",
      "type": "constructor"
    },
    {
      "inputs": [
        {
          "internalType": "address",
          "name": "sender",
          "type": "address"
        },
        {
          "internalType": "uint256",
          "name": "tokenId",
          "type": "uint256"
        },
        {
          "internalType": "address",
          "name": "owner",
          "type": "address"
        }
      ],
      "name": "ERC721IncorrectOwner",
      "type": "error"
    },
    {
      "inputs": [
        {
          "internalType": "address",
          "name": "operator",
          "type": "address"
        },
        {
          "internalType": "uint256",
          "name": "tokenId",
          "type": "uint256"
        }
      ],
      "name": "ERC721InsufficientApproval",
      "type": "error"
    },
    {
      "inputs": [
        {
          "internalType": "address",
          "name": "approver",
          "type": "address"
        }
      ],
      "name": "ERC721InvalidApprover",
      "type": "error"
    },
    {
      "inputs": [
        {
          "internalType": "address",
          "name": "operator",
          "type": "address"
        }
      ],
      "name": "ERC721InvalidOperator",
      "type": "error"
    },
    {
      "inputs": [
        {
          "internalType": "address",
          "name": "owner",
          "type": "address"
        }
      ],
      "name": "ERC721InvalidOwner",
      "type": "error"
    },
    {
      "inputs": [
        {
          "internalType": "address",
          "name": "receiver",
          "type": "address"
        }
      ],
      "name": "ERC721InvalidReceiver",
      "type": "error"
    },
    {
      "inputs": [
        {
          "internalType": "address",
          "name": "sender",
          "type": "address"
        }
      ],
      "name": "ERC721InvalidSender",
      "type": "error"
    },
    {
      "inputs": [
        {
          "internalType": "uint256",
          "name": "tokenId",
          "type": "uint256"
        }
      ],
      "name": "ERC721NonexistentToken",
      "type": "error"
    },
    {
      "anonymous": false,
      "inputs": [
        {
          "indexed": true,
          "internalType": "address",
          "name": "owner",
          "type": "address"
        },
        {
          "indexed": true,
          "internalType": "address",
          "name": "approved",
          "type": "address"
        },
        {
          "indexed": true,
          "internalType": "uint256",
          "name": "tokenId",
          "type": "uint256"
        }
      ],
      "name": "Approval",
      "type": "event"
    },
    {
      "anonymous": false,
      "inputs": [
        {
          "indexed": true,
          "internalType": "address",
          "name": "owner",
          "type": "address"
        },
        {
          "indexed": true,
          "internalType": "address",
          "name": "operator",
          "type": "address"
        },
        {
          "indexed": false,
          "internalType": "bool",
          "name": "approved",
          "type": "bool"
        }
      ],
      "name": "ApprovalForAll",
      "type": "event"
    },
    {
      "anonymous": false,
      "inputs": [
        {
          "indexed": false,
          "internalType": "uint256",
          "name": "_fromTokenId",
          "type": "uint256"
        },
        {
          "indexed": false,
          "internalType": "uint256",
          "name": "_toTokenId",
          "type": "uint256"
        }
      ],
      "name": "BatchMetadataUpdate",
      "type": "event"
    },
    {
      "anonymous": false,
      "inputs": [
        {
          "indexed": true,
          "internalType": "string",
          "name": "ipfs_hash",
          "type": "string"
        },
        {
          "indexed": false,
          "internalType": "string",
          "name": "candidate_name",
          "type": "string"
        },
        {
          "indexed": false,
          "internalType": "string",
          "name": "speciality",
          "type": "string"
        },
        {
          "indexed": false,
          "internalType": "string",
          "name": "school_name",
          "type": "string"
        }
      ],
      "name": "CertificateMinted",
      "type": "event"
    },
    {
      "anonymous": false,
      "inputs": [
        {
          "indexed": false,
          "internalType": "uint256",
          "name": "_tokenId",
          "type": "uint256"
        }
      ],
      "name": "MetadataUpdate",
      "type": "event"
    },
    {
      "anonymous": false,
      "inputs": [
        {
          "indexed": true,
          "internalType": "address",
          "name": "from",
          "type": "address"
        },
        {
          "indexed": true,
          "internalType": "address",
          "name": "to",
          "type": "address"
        },
        {
          "indexed": true,
          "internalType": "uint256",
          "name": "tokenId",
          "type": "uint256"
        }
      ],
      "name": "Transfer",
      "type": "event"
    },
    {
      "inputs": [
        {
          "internalType": "address",
          "name": "to",
          "type": "address"
        },
        {
          "internalType": "uint256",
          "name": "tokenId",
          "type": "uint256"
        }
      ],
      "name": "approve",
      "outputs": [],
      "stateMutability": "nonpayable",
      "type": "function"
    },
    {
      "inputs": [
        {
          "internalType": "address",
          "name": "owner",
          "type": "address"
        }
      ],
      "name": "balanceOf",
      "outputs": [
        {
          "internalType": "uint256",
          "name": "",
          "type": "uint256"
        }
      ],
      "stateMutability": "view",
      "type": "function",
      "constant": true
    },
    {
      "inputs": [
        {
          "internalType": "string",
          "name": "",
          "type": "string"
        }
      ],
      "name": "certificates",
      "outputs": [
        {
          "internalType": "string",
          "name": "uid",
          "type": "string"
        },
        {
          "internalType": "string",
          "name": "candidate_name",
          "type": "string"
        },
        {
          "internalType": "string",
          "name": "speciality",
          "type": "string"
        },
        {
          "internalType": "string",
          "name": "school_name",
          "type": "string"
        },
        {
          "internalType": "string",
          "name": "ipfs_hash",
          "type": "string"
        }
      ],
      "stateMutability": "view",
      "type": "function",
      "constant": true
    },
    {
      "inputs": [
        {
          "internalType": "uint256",
          "name": "tokenId",
          "type": "uint256"
        }
      ],
      "name": "getApproved",
      "outputs": [
        {
          "internalType": "address",
          "name": "",
          "type": "address"
        }
      ],
      "stateMutability": "view",
      "type": "function",
      "constant": true
    },
    {
      "inputs": [
        {
          "internalType": "address",
          "name": "owner",
          "type": "address"
        },
        {
          "internalType": "address",
          "name": "operator",
          "type": "address"
        }
      ],
      "name": "isApprovedForAll",
      "outputs": [
        {
          "internalType": "bool",
          "name": "",
          "type": "bool"
        }
      ],
      "stateMutability": "view",
      "type": "function",
      "constant": true
    },
    {
      "inputs": [],
      "name": "name",
      "outputs": [
        {
          "internalType": "string",
          "name": "",
          "type": "string"
        }
      ],
      "stateMutability": "view",
      "type": "function",
      "constant": true
    },
    {
      "inputs": [
        {
          "internalType": "uint256",
          "name": "tokenId",
          "type": "uint256"
        }
      ],
      "name": "ownerOf",
      "outputs": [
        {
          "internalType": "address",
          "name": "",
          "type": "address"
        }
      ],
      "stateMutability": "view",
      "type": "function",
      "constant": true
    },
    {
      "inputs": [
        {
          "internalType": "address",
          "name": "from",
          "type": "address"
        },
        {
          "internalType": "address",
          "name": "to",
          "type": "address"
        },
        {
          "internalType": "uint256",
          "name": "tokenId",
          "type": "uint256"
        }
      ],
      "name": "safeTransferFrom",
      "outputs": [],
      "stateMutability": "nonpayable",
      "type": "function"
    },
    {
      "inputs": [
        {
          "internalType": "address",
          "name": "from",
          "type": "address"
        },
        {
          "internalType": "address",
          "name": "to",
          "type": "address"
        },
        {
          "internalType": "uint256",
          "name": "tokenId",
          "type": "uint256"
        },
        {
          "internalType": "bytes",
          "name": "data",
          "type": "bytes"
        }
      ],
      "name": "safeTransferFrom",
      "outputs": [],
      "stateMutability": "nonpayable",
      "type": "function"
    },
    {
      "inputs": [
        {
          "internalType": "address",
          "name": "operator",
          "type": "address"
        },
        {
          "internalType": "bool",
          "name": "approved",
          "type": "bool"
        }
      ],
      "name": "setApprovalForAll",
      "outputs": [],
      "stateMutability": "nonpayable",
      "type": "function"
    },
    {
      "inputs": [
        {
          "internalType": "bytes4",
          "name": "interfaceId",
          "type": "bytes4"
        }
      ],
      "name": "supportsInterface",
      "outputs": [
        {
          "internalType": "bool",
          "name": "",
          "type": "bool"
        }
      ],
      "stateMutability": "view",
      "type": "function",
      "constant": true
    },
    {
      "inputs": [],
      "name": "symbol",
      "outputs": [
        {
          "internalType": "string",
          "name": "",
          "type": "string"
        }
      ],
      "stateMutability": "view",
      "type": "function",
      "constant": true
    },
    {
      "inputs": [
        {
          "internalType": "uint256",
          "name": "tokenId",
          "type": "uint256"
        }
      ],
      "name": "tokenURI",
      "outputs": [
        {
          "internalType": "string",
          "name": "",
          "type": "string"
        }
      ],
      "stateMutability": "view",
      "type": "function",
      "constant": true
    },
    {
      "inputs": [
        {
          "internalType": "address",
          "name": "from",
          "type": "address"
        },
        {
          "internalType": "address",
          "name": "to",
          "type": "address"
        },
        {
          "internalType": "uint256",
          "name": "tokenId",
          "type": "uint256"
        }
      ],
      "name": "transferFrom",
      "outputs": [],
      "stateMutability": "nonpayable",
      "type": "function"
    },
    {
      "inputs": [
        {
          "internalType": "string",
          "name": "_uid",
          "type": "string"
        },
        {
          "internalType": "string",
          "name": "_candidate_name",
          "type": "string"
        },
        {
          "internalType": "string",
          "name": "_speciality",
          "type": "string"
        },
        {
          "internalType": "string",
          "name": "_school_name",
          "type": "string"
        },
        {
          "internalType": "string",
          "name": "_ipfs_hash",
          "type": "string"
        }
      ],
      "name": "mintCertificate",
      "outputs": [
        {
          "internalType": "string",
          "name": "",
          "type": "string"
        }
      ],
      "stateMutability": "nonpayable",
      "type": "function"
    },
    {
      "inputs": [
        {
          "internalType": "string",
          "name": "_ipfs_hash",
          "type": "string"
        }
      ],
      "name": "getCertificateDetails",
      "outputs": [
        {
          "internalType": "string",
          "name": "uid",
          "type": "string"
        },
        {
          "internalType": "string",
          "name": "candidate_name",
          "type": "string"
        },
        {
          "internalType": "string",
          "name": "speciality",
          "type": "string"
        },
        {
          "internalType": "string",
          "name": "school_name",
          "type": "string"
        },
        {
          "internalType": "string",
          "name": "ipfs_hash",
          "type": "string"
        }
      ],
      "stateMutability": "view",
      "type": "function",
      "constant": true
    },
    {
      "inputs": [
        {
          "internalType": "string",
          "name": "_ipfs_hash",
          "type": "string"
        }
      ],
      "name": "isVerified",
      "outputs": [
        {
          "internalType": "bool",
          "name": "",
          "type": "bool"
        }
      ],
      "stateMutability": "view",
      "type": "function",
      "constant": true
    }
  ],
  "bytecode": "0x608060405234801562000010575f80fd5b506040518060400160405280600781526020017f4d79546f6b656e000000000000000000000000000000000000000000000000008152506040518060400160405280600381526020017f4d544b0000000000000000000000000000000000000000000000000000000000815250815f90816200008d91906200030c565b5080600190816200009f91906200030c565b505050620003f0565b5f81519050919050565b7f4e487b71000000000000000000000000000000000000000000000000000000005f52604160045260245ffd5b7f4e487b71000000000000000000000000000000000000000000000000000000005f52602260045260245ffd5b5f60028204905060018216806200012457607f821691505b6020821081036200013a5762000139620000df565b5b50919050565b5f819050815f5260205f209050919050565b5f6020601f8301049050919050565b5f82821b905092915050565b5f600883026200019e7fffffffffffffffffffffffffffffffffffffffffffffffffffffffffffffffff8262000161565b620001aa868362000161565b95508019841693508086168417925050509392505050565b5f819050919050565b5f819050919050565b5f620001f4620001ee620001e884620001c2565b620001cb565b620001c2565b9050919050565b5f819050919050565b6200020f83620001d4565b620002276200021e82620001fb565b8484546200016d565b825550505050565b5f90565b6200023d6200022f565b6200024a81848462000204565b505050565b5b818110156200027157620002655f8262000233565b60018101905062000250565b5050565b601f821115620002c0576200028a8162000140565b620002958462000152565b81016020851015620002a5578190505b620002bd620002b48562000152565b8301826200024f565b50505b505050565b5f82821c905092915050565b5f620002e25f1984600802620002c5565b1980831691505092915050565b5f620002fc8383620002d1565b9150826002028217905092915050565b6200031782620000a8565b67ffffffffffffffff811115620003335762000332620000b2565b5b6200033f82546200010c565b6200034c82828562000275565b5f60209050601f83116001811462000382575f84156200036d578287015190505b620003798582620002ef565b865550620003e8565b601f198416620003928662000140565b5f5b82811015620003bb5784890151825560018201915060208501945060208101905062000394565b86831015620003db5784890151620003d7601f891682620002d1565b8355505b6001600288020188555050505b505050505050565b612cd980620003fe5f395ff3fe608060405234801561000f575f80fd5b5060043610610109575f3560e01c806370a08231116100a0578063a22cb4651161006f578063a22cb465146102f1578063b88d4fde1461030d578063c87b56dd14610329578063e985e9c514610359578063fa433b361461038957610109565b806370a082311461023f57806375ea8dbc1461026f5780638f2b91ea1461029f57806395d89b41146102d357610109565b8063234c76d5116100dc578063234c76d5146101a757806323b872dd146101d757806342842e0e146101f35780636352211e1461020f57610109565b806301ffc9a71461010d57806306fdde031461013d578063081812fc1461015b578063095ea7b31461018b575b5f80fd5b61012760048036038101906101229190611f26565b6103bd565b6040516101349190611f6b565b60405180910390f35b61014561041d565b604051610152919061200e565b60405180910390f35b61017560048036038101906101709190612061565b6104ac565b60405161018291906120cb565b60405180910390f35b6101a560048036038101906101a0919061210e565b6104c7565b005b6101c160048036038101906101bc9190612278565b6104dd565b6040516101ce9190611f6b565b60405180910390f35b6101f160048036038101906101ec91906122bf565b610516565b005b61020d600480360381019061020891906122bf565b610615565b005b61022960048036038101906102249190612061565b610634565b60405161023691906120cb565b60405180910390f35b6102596004803603810190610254919061230f565b610645565b6040516102669190612349565b60405180910390f35b61028960048036038101906102849190612362565b6106fb565b604051610296919061200e565b60405180910390f35b6102b960048036038101906102b49190612278565b610882565b6040516102ca959493929190612465565b60405180910390f35b6102db610b6a565b6040516102e8919061200e565b60405180910390f35b61030b60048036038101906103069190612503565b610bfa565b005b610327600480360381019061032291906125df565b610c10565b005b610343600480360381019061033e9190612061565b610c35565b604051610350919061200e565b60405180910390f35b610373600480360381019061036e919061265f565b610d40565b6040516103809190611f6b565b60405180910390f35b6103a3600480360381019061039e9190612278565b610dce565b6040516103b4959493929190612465565b60405180910390f35b5f634906490660e01b7bffffffffffffffffffffffffffffffffffffffffffffffffffffffff1916827bffffffffffffffffffffffffffffffffffffffffffffffffffffffff1916148061041657506104158261116c565b5b9050919050565b60605f805461042b906126ca565b80601f0160208091040260200160405190810160405280929190818152602001828054610457906126ca565b80156104a25780601f10610479576101008083540402835291602001916104a2565b820191905f5260205f20905b81548152906001019060200180831161048557829003601f168201915b5050505050905090565b5f6104b68261124d565b506104c0826112d3565b9050919050565b6104d982826104d461130c565b611313565b5050565b5f806007836040516104ef9190612734565b9081526020016040518091039020600401805461050b906126ca565b905014159050919050565b5f73ffffffffffffffffffffffffffffffffffffffff168273ffffffffffffffffffffffffffffffffffffffff1603610586575f6040517f64a0ae9200000000000000000000000000000000000000000000000000000000815260040161057d91906120cb565b60405180910390fd5b5f610599838361059461130c565b611325565b90508373ffffffffffffffffffffffffffffffffffffffff168173ffffffffffffffffffffffffffffffffffffffff161461060f578382826040517f64283d7b0000000000000000000000000000000000000000000000000000000081526004016106069392919061274a565b60405180910390fd5b50505050565b61062f83838360405180602001604052805f815250610c10565b505050565b5f61063e8261124d565b9050919050565b5f8073ffffffffffffffffffffffffffffffffffffffff168273ffffffffffffffffffffffffffffffffffffffff16036106b6575f6040517f89c62b640000000000000000000000000000000000000000000000000000000081526004016106ad91906120cb565b60405180910390fd5b60035f8373ffffffffffffffffffffffffffffffffffffffff1673ffffffffffffffffffffffffffffffffffffffff1681526020019081526020015f20549050919050565b60605f60078360405161070e9190612734565b9081526020016040518091039020600401805461072a906126ca565b90501461076c576040517f08c379a0000000000000000000000000000000000000000000000000000000008152600401610763906127ef565b60405180910390fd5b5f6040518060a00160405280888152602001878152602001868152602001858152602001848152509050806007846040516107a79190612734565b90815260200160405180910390205f820151815f0190816107c891906129aa565b5060208201518160010190816107de91906129aa565b5060408201518160020190816107f491906129aa565b50606082015181600301908161080a91906129aa565b50608082015181600401908161082091906129aa565b50905050826040516108329190612734565b60405180910390207fc056020af46bbc33647945086248f2f646ca05b68aa25196821d000f38a8f86b87878760405161086d93929190612a79565b60405180910390a28291505095945050505050565b6007818051602081018201805184825260208301602085012081835280955050505050505f91509050805f0180546108b9906126ca565b80601f01602080910402602001604051908101604052809291908181526020018280546108e5906126ca565b80156109305780601f1061090757610100808354040283529160200191610930565b820191905f5260205f20905b81548152906001019060200180831161091357829003601f168201915b505050505090806001018054610945906126ca565b80601f0160208091040260200160405190810160405280929190818152602001828054610971906126ca565b80156109bc5780601f10610993576101008083540402835291602001916109bc565b820191905f5260205f20905b81548152906001019060200180831161099f57829003601f168201915b5050505050908060020180546109d1906126ca565b80601f01602080910402602001604051908101604052809291908181526020018280546109fd906126ca565b8015610a485780601f10610a1f57610100808354040283529160200191610a48565b820191905f5260205f20905b815481529060010190602001808311610a2b57829003601f168201915b505050505090806003018054610a5d906126ca565b80601f0160208091040260200160405190810160405280929190818152602001828054610a89906126ca565b8015610ad45780601f10610aab57610100808354040283529160200191610ad4565b820191905f5260205f20905b815481529060010190602001808311610ab757829003601f168201915b505050505090806004018054610ae9906126ca565b80601f0160208091040260200160405190810160405280929190818152602001828054610b15906126ca565b8015610b605780601f10610b3757610100808354040283529160200191610b60565b820191905f5260205f20905b815481529060010190602001808311610b4357829003601f168201915b5050505050905085565b606060018054610b79906126ca565b80601f0160208091040260200160405190810160405280929190818152602001828054610ba5906126ca565b8015610bf05780601f10610bc757610100808354040283529160200191610bf0565b820191905f5260205f20905b815481529060010190602001808311610bd357829003601f168201915b5050505050905090565b610c0c610c0561130c565b8383611530565b5050565b610c1b848484610516565b610c2f610c2661130c565b85858585611699565b50505050565b6060610c408261124d565b505f60065f8481526020019081526020015f208054610c5e906126ca565b80601f0160208091040260200160405190810160405280929190818152602001828054610c8a906126ca565b8015610cd55780601f10610cac57610100808354040283529160200191610cd5565b820191905f5260205f20905b815481529060010190602001808311610cb857829003601f168201915b505050505090505f610ce5611845565b90505f815103610cf9578192505050610d3b565b5f82511115610d2d578082604051602001610d15929190612ac3565b60405160208183030381529060405292505050610d3b565b610d368461185b565b925050505b919050565b5f60055f8473ffffffffffffffffffffffffffffffffffffffff1673ffffffffffffffffffffffffffffffffffffffff1681526020019081526020015f205f8373ffffffffffffffffffffffffffffffffffffffff1673ffffffffffffffffffffffffffffffffffffffff1681526020019081526020015f205f9054906101000a900460ff16905092915050565b60608060608060605f600787604051610de79190612734565b90815260200160405180910390206040518060a00160405290815f82018054610e0f906126ca565b80601f0160208091040260200160405190810160405280929190818152602001828054610e3b906126ca565b8015610e865780601f10610e5d57610100808354040283529160200191610e86565b820191905f5260205f20905b815481529060010190602001808311610e6957829003601f168201915b50505050508152602001600182018054610e9f906126ca565b80601f0160208091040260200160405190810160405280929190818152602001828054610ecb906126ca565b8015610f165780601f10610eed57610100808354040283529160200191610f16565b820191905f5260205f20905b815481529060010190602001808311610ef957829003601f168201915b50505050508152602001600282018054610f2f906126ca565b80601f0160208091040260200160405190810160405280929190818152602001828054610f5b906126ca565b8015610fa65780601f10610f7d57610100808354040283529160200191610fa6565b820191905f5260205f20905b815481529060010190602001808311610f8957829003601f168201915b50505050508152602001600382018054610fbf906126ca565b80601f0160208091040260200160405190810160405280929190818152602001828054610feb906126ca565b80156110365780601f1061100d57610100808354040283529160200191611036565b820191905f5260205f20905b81548152906001019060200180831161101957829003601f168201915b5050505050815260200160048201805461104f906126ca565b80601f016020809104026020016040519081016040528092919081815260200182805461107b906126ca565b80156110c65780601f1061109d576101008083540402835291602001916110c6565b820191905f5260205f20905b8154815290600101906020018083116110a957829003601f168201915b50505050508152505090505f6007886040516110e29190612734565b908152602001604051809103902060040180546110fe906126ca565b905003611140576040517f08c379a000000000000000000000000000000000000000000000000000000000815260040161113790612b56565b60405180910390fd5b805f01518160200151826040015183606001518460800151955095509550955095505091939590929450565b5f7f80ac58cd000000000000000000000000000000000000000000000000000000007bffffffffffffffffffffffffffffffffffffffffffffffffffffffff1916827bffffffffffffffffffffffffffffffffffffffffffffffffffffffff1916148061123657507f5b5e139f000000000000000000000000000000000000000000000000000000007bffffffffffffffffffffffffffffffffffffffffffffffffffffffff1916827bffffffffffffffffffffffffffffffffffffffffffffffffffffffff1916145b806112465750611245826118c1565b5b9050919050565b5f806112588361192a565b90505f73ffffffffffffffffffffffffffffffffffffffff168173ffffffffffffffffffffffffffffffffffffffff16036112ca57826040517f7e2732890000000000000000000000000000000000000000000000000000000081526004016112c19190612349565b60405180910390fd5b80915050919050565b5f60045f8381526020019081526020015f205f9054906101000a900473ffffffffffffffffffffffffffffffffffffffff169050919050565b5f33905090565b6113208383836001611963565b505050565b5f806113308461192a565b90505f73ffffffffffffffffffffffffffffffffffffffff168373ffffffffffffffffffffffffffffffffffffffff161461137157611370818486611b22565b5b5f73ffffffffffffffffffffffffffffffffffffffff168173ffffffffffffffffffffffffffffffffffffffff16146113fc576113b05f855f80611963565b600160035f8373ffffffffffffffffffffffffffffffffffffffff1673ffffffffffffffffffffffffffffffffffffffff1681526020019081526020015f205f82825403925050819055505b5f73ffffffffffffffffffffffffffffffffffffffff168573ffffffffffffffffffffffffffffffffffffffff161461147b57600160035f8773ffffffffffffffffffffffffffffffffffffffff1673ffffffffffffffffffffffffffffffffffffffff1681526020019081526020015f205f82825401925050819055505b8460025f8681526020019081526020015f205f6101000a81548173ffffffffffffffffffffffffffffffffffffffff021916908373ffffffffffffffffffffffffffffffffffffffff160217905550838573ffffffffffffffffffffffffffffffffffffffff168273ffffffffffffffffffffffffffffffffffffffff167fddf252ad1be2c89b69c2b068fc378daa952ba7f163c4a11628f55a4df523b3ef60405160405180910390a4809150509392505050565b5f73ffffffffffffffffffffffffffffffffffffffff168273ffffffffffffffffffffffffffffffffffffffff16036115a057816040517f5b08ba1800000000000000000000000000000000000000000000000000000000815260040161159791906120cb565b60405180910390fd5b8060055f8573ffffffffffffffffffffffffffffffffffffffff1673ffffffffffffffffffffffffffffffffffffffff1681526020019081526020015f205f8473ffffffffffffffffffffffffffffffffffffffff1673ffffffffffffffffffffffffffffffffffffffff1681526020019081526020015f205f6101000a81548160ff0219169083151502179055508173ffffffffffffffffffffffffffffffffffffffff168373ffffffffffffffffffffffffffffffffffffffff167f17307eab39ab6107e8899845ad3d59bd9653f200f220920489ca2b5937696c318360405161168c9190611f6b565b60405180910390a3505050565b5f8373ffffffffffffffffffffffffffffffffffffffff163b111561183e578273ffffffffffffffffffffffffffffffffffffffff1663150b7a02868685856040518563ffffffff1660e01b81526004016116f79493929190612bc6565b6020604051808303815f875af192505050801561173257506040513d601f19601f8201168201806040525081019061172f9190612c24565b60015b6117b3573d805f8114611760576040519150601f19603f3d011682016040523d82523d5f602084013e611765565b606091505b505f8151036117ab57836040517f64a0ae920000000000000000000000000000000000000000000000000000000081526004016117a291906120cb565b60405180910390fd5b805181602001fd5b63150b7a0260e01b7bffffffffffffffffffffffffffffffffffffffffffffffffffffffff1916817bffffffffffffffffffffffffffffffffffffffffffffffffffffffff19161461183c57836040517f64a0ae9200000000000000000000000000000000000000000000000000000000815260040161183391906120cb565b60405180910390fd5b505b5050505050565b606060405180602001604052805f815250905090565b60606118668261124d565b505f611870611845565b90505f81511161188e5760405180602001604052805f8152506118b9565b8061189884611be5565b6040516020016118a9929190612ac3565b6040516020818303038152906040525b915050919050565b5f7f01ffc9a7000000000000000000000000000000000000000000000000000000007bffffffffffffffffffffffffffffffffffffffffffffffffffffffff1916827bffffffffffffffffffffffffffffffffffffffffffffffffffffffff1916149050919050565b5f60025f8381526020019081526020015f205f9054906101000a900473ffffffffffffffffffffffffffffffffffffffff169050919050565b808061199b57505f73ffffffffffffffffffffffffffffffffffffffff168273ffffffffffffffffffffffffffffffffffffffff1614155b15611acd575f6119aa8461124d565b90505f73ffffffffffffffffffffffffffffffffffffffff168373ffffffffffffffffffffffffffffffffffffffff1614158015611a1457508273ffffffffffffffffffffffffffffffffffffffff168173ffffffffffffffffffffffffffffffffffffffff1614155b8015611a275750611a258184610d40565b155b15611a6957826040517fa9fbf51f000000000000000000000000000000000000000000000000000000008152600401611a6091906120cb565b60405180910390fd5b8115611acb57838573ffffffffffffffffffffffffffffffffffffffff168273ffffffffffffffffffffffffffffffffffffffff167f8c5be1e5ebec7d5bd14f71427d1e84f3dd0314c0f7b2291e5b200ac8c7c3b92560405160405180910390a45b505b8360045f8581526020019081526020015f205f6101000a81548173ffffffffffffffffffffffffffffffffffffffff021916908373ffffffffffffffffffffffffffffffffffffffff16021790555050505050565b611b2d838383611caf565b611be0575f73ffffffffffffffffffffffffffffffffffffffff168373ffffffffffffffffffffffffffffffffffffffff1603611ba157806040517f7e273289000000000000000000000000000000000000000000000000000000008152600401611b989190612349565b60405180910390fd5b81816040517f177e802f000000000000000000000000000000000000000000000000000000008152600401611bd7929190612c4f565b60405180910390fd5b505050565b60605f6001611bf384611d6f565b0190505f8167ffffffffffffffff811115611c1157611c10612154565b5b6040519080825280601f01601f191660200182016040528015611c435781602001600182028036833780820191505090505b5090505f82602001820190505b600115611ca4578080600190039150507f3031323334353637383961626364656600000000000000000000000000000000600a86061a8153600a8581611c9957611c98612c76565b5b0494505f8503611c50575b819350505050919050565b5f8073ffffffffffffffffffffffffffffffffffffffff168373ffffffffffffffffffffffffffffffffffffffff1614158015611d6657508273ffffffffffffffffffffffffffffffffffffffff168473ffffffffffffffffffffffffffffffffffffffff161480611d275750611d268484610d40565b5b80611d6557508273ffffffffffffffffffffffffffffffffffffffff16611d4d836112d3565b73ffffffffffffffffffffffffffffffffffffffff16145b5b90509392505050565b5f805f90507a184f03e93ff9f4daa797ed6e38ed64bf6a1f0100000000000000008310611dcb577a184f03e93ff9f4daa797ed6e38ed64bf6a1f0100000000000000008381611dc157611dc0612c76565b5b0492506040810190505b6d04ee2d6d415b85acef81000000008310611e08576d04ee2d6d415b85acef81000000008381611dfe57611dfd612c76565b5b0492506020810190505b662386f26fc100008310611e3757662386f26fc100008381611e2d57611e2c612c76565b5b0492506010810190505b6305f5e1008310611e60576305f5e1008381611e5657611e55612c76565b5b0492506008810190505b6127108310611e85576127108381611e7b57611e7a612c76565b5b0492506004810190505b60648310611ea85760648381611e9e57611e9d612c76565b5b0492506002810190505b600a8310611eb7576001810190505b80915050919050565b5f604051905090565b5f80fd5b5f80fd5b5f7fffffffff0000000000000000000000000000000000000000000000000000000082169050919050565b611f0581611ed1565b8114611f0f575f80fd5b50565b5f81359050611f2081611efc565b92915050565b5f60208284031215611f3b57611f3a611ec9565b5b5f611f4884828501611f12565b91505092915050565b5f8115159050919050565b611f6581611f51565b82525050565b5f602082019050611f7e5f830184611f5c565b92915050565b5f81519050919050565b5f82825260208201905092915050565b5f5b83811015611fbb578082015181840152602081019050611fa0565b5f8484015250505050565b5f601f19601f8301169050919050565b5f611fe082611f84565b611fea8185611f8e565b9350611ffa818560208601611f9e565b61200381611fc6565b840191505092915050565b5f6020820190508181035f8301526120268184611fd6565b905092915050565b5f819050919050565b6120408161202e565b811461204a575f80fd5b50565b5f8135905061205b81612037565b92915050565b5f6020828403121561207657612075611ec9565b5b5f6120838482850161204d565b91505092915050565b5f73ffffffffffffffffffffffffffffffffffffffff82169050919050565b5f6120b58261208c565b9050919050565b6120c5816120ab565b82525050565b5f6020820190506120de5f8301846120bc565b92915050565b6120ed816120ab565b81146120f7575f80fd5b50565b5f81359050612108816120e4565b92915050565b5f806040838503121561212457612123611ec9565b5b5f612131858286016120fa565b92505060206121428582860161204d565b9150509250929050565b5f80fd5b5f80fd5b7f4e487b71000000000000000000000000000000000000000000000000000000005f52604160045260245ffd5b61218a82611fc6565b810181811067ffffffffffffffff821117156121a9576121a8612154565b5b80604052505050565b5f6121bb611ec0565b90506121c78282612181565b919050565b5f67ffffffffffffffff8211156121e6576121e5612154565b5b6121ef82611fc6565b9050602081019050919050565b828183375f83830152505050565b5f61221c612217846121cc565b6121b2565b90508281526020810184848401111561223857612237612150565b5b6122438482856121fc565b509392505050565b5f82601f83011261225f5761225e61214c565b5b813561226f84826020860161220a565b91505092915050565b5f6020828403121561228d5761228c611ec9565b5b5f82013567ffffffffffffffff8111156122aa576122a9611ecd565b5b6122b68482850161224b565b91505092915050565b5f805f606084860312156122d6576122d5611ec9565b5b5f6122e3868287016120fa565b93505060206122f4868287016120fa565b92505060406123058682870161204d565b9150509250925092565b5f6020828403121561232457612323611ec9565b5b5f612331848285016120fa565b91505092915050565b6123438161202e565b82525050565b5f60208201905061235c5f83018461233a565b92915050565b5f805f805f60a0868803121561237b5761237a611ec9565b5b5f86013567ffffffffffffffff81111561239857612397611ecd565b5b6123a48882890161224b565b955050602086013567ffffffffffffffff8111156123c5576123c4611ecd565b5b6123d18882890161224b565b945050604086013567ffffffffffffffff8111156123f2576123f1611ecd565b5b6123fe8882890161224b565b935050606086013567ffffffffffffffff81111561241f5761241e611ecd565b5b61242b8882890161224b565b925050608086013567ffffffffffffffff81111561244c5761244b611ecd565b5b6124588882890161224b565b9150509295509295909350565b5f60a0820190508181035f83015261247d8188611fd6565b905081810360208301526124918187611fd6565b905081810360408301526124a58186611fd6565b905081810360608301526124b98185611fd6565b905081810360808301526124cd8184611fd6565b90509695505050505050565b6124e281611f51565b81146124ec575f80fd5b50565b5f813590506124fd816124d9565b92915050565b5f806040838503121561251957612518611ec9565b5b5f612526858286016120fa565b9250506020612537858286016124ef565b9150509250929050565b5f67ffffffffffffffff82111561255b5761255a612154565b5b61256482611fc6565b9050602081019050919050565b5f61258361257e84612541565b6121b2565b90508281526020810184848401111561259f5761259e612150565b5b6125aa8482856121fc565b509392505050565b5f82601f8301126125c6576125c561214c565b5b81356125d6848260208601612571565b91505092915050565b5f805f80608085870312156125f7576125f6611ec9565b5b5f612604878288016120fa565b9450506020612615878288016120fa565b93505060406126268782880161204d565b925050606085013567ffffffffffffffff81111561264757612646611ecd565b5b612653878288016125b2565b91505092959194509250565b5f806040838503121561267557612674611ec9565b5b5f612682858286016120fa565b9250506020612693858286016120fa565b9150509250929050565b7f4e487b71000000000000000000000000000000000000000000000000000000005f52602260045260245ffd5b5f60028204905060018216806126e157607f821691505b6020821081036126f4576126f361269d565b5b50919050565b5f81905092915050565b5f61270e82611f84565b61271881856126fa565b9350612728818560208601611f9e565b80840191505092915050565b5f61273f8284612704565b915081905092915050565b5f60608201905061275d5f8301866120bc565b61276a602083018561233a565b61277760408301846120bc565b949350505050565b7f43657274696669636174652077697468207468697320495046532068617368205f8201527f616c726561647920657869737473000000000000000000000000000000000000602082015250565b5f6127d9602e83611f8e565b91506127e48261277f565b604082019050919050565b5f6020820190508181035f830152612806816127cd565b9050919050565b5f819050815f5260205f209050919050565b5f6020601f8301049050919050565b5f82821b905092915050565b5f600883026128697fffffffffffffffffffffffffffffffffffffffffffffffffffffffffffffffff8261282e565b612873868361282e565b95508019841693508086168417925050509392505050565b5f819050919050565b5f6128ae6128a96128a48461202e565b61288b565b61202e565b9050919050565b5f819050919050565b6128c783612894565b6128db6128d3826128b5565b84845461283a565b825550505050565b5f90565b6128ef6128e3565b6128fa8184846128be565b505050565b5b8181101561291d576129125f826128e7565b600181019050612900565b5050565b601f821115612962576129338161280d565b61293c8461281f565b8101602085101561294b578190505b61295f6129578561281f565b8301826128ff565b50505b505050565b5f82821c905092915050565b5f6129825f1984600802612967565b1980831691505092915050565b5f61299a8383612973565b9150826002028217905092915050565b6129b382611f84565b67ffffffffffffffff8111156129cc576129cb612154565b5b6129d682546126ca565b6129e1828285612921565b5f60209050601f831160018114612a12575f8415612a00578287015190505b612a0a858261298f565b865550612a71565b601f198416612a208661280d565b5f5b82811015612a4757848901518255600182019150602085019450602081019050612a22565b86831015612a645784890151612a60601f891682612973565b8355505b6001600288020188555050505b505050505050565b5f6060820190508181035f830152612a918186611fd6565b90508181036020830152612aa58185611fd6565b90508181036040830152612ab98184611fd6565b9050949350505050565b5f612ace8285612704565b9150612ada8284612704565b91508190509392505050565b7f43657274696669636174652077697468207468697320495046532068617368205f8201527f646f6573206e6f74206578697374000000000000000000000000000000000000602082015250565b5f612b40602e83611f8e565b9150612b4b82612ae6565b604082019050919050565b5f6020820190508181035f830152612b6d81612b34565b9050919050565b5f81519050919050565b5f82825260208201905092915050565b5f612b9882612b74565b612ba28185612b7e565b9350612bb2818560208601611f9e565b612bbb81611fc6565b840191505092915050565b5f608082019050612bd95f8301876120bc565b612be660208301866120bc565b612bf3604083018561233a565b8181036060830152612c058184612b8e565b905095945050505050565b5f81519050612c1e81611efc565b92915050565b5f60208284031215612c3957612c38611ec9565b5b5f612c4684828501612c10565b91505092915050565b5f604082019050612c625f8301856120bc565b612c6f602083018461233a565b9392505050565b7f4e487b71000000000000000000000000000000000000000000000000000000005f52601260045260245ffdfea2646970667358221220d85c702c476134394ac65b6c18ecbafdd4a7cace8db0e211b2b9306691fa94f764736f6c63430008150033",
  "immutableReferences": {},
  "source": "// SPDX-License-Identifier: MIT\r\npragma solidity ^0.8.21;\r\n\r\nimport \"@openzeppelin/contracts/token/ERC721/extensions/ERC721URIStorage.sol\";\r\n\r\ncontract CertificationNFT is ERC721URIStorage {\r\n    // Constructor now no longer uses Ownable\r\n    constructor() ERC721(\"MyToken\", \"MTK\") {}\r\n\r\n    struct Certificate {\r\n        string uid;\r\n        string candidate_name;\r\n        string speciality;\r\n        string school_name;\r\n        string ipfs_hash;\r\n    }\r\n\r\n    mapping(string => Certificate) public certificates;\r\n\r\n    event CertificateMinted(\r\n        string indexed ipfs_hash,\r\n        string candidate_name,\r\n        string speciality,\r\n        string school_name\r\n    );\r\n\r\n    // Minting function to create a new certificate\r\n    function mintCertificate(\r\n        string memory _uid,\r\n        string memory _candidate_name,\r\n        string memory _speciality,\r\n        string memory _school_name,\r\n        string memory _ipfs_hash\r\n    ) public returns (string memory) {\r\n        // Check if certificate with the given IPFS hash already exists\r\n        require(bytes(certificates[_ipfs_hash].ipfs_hash).length == 0, \"Certificate with this IPFS hash already exists\");\r\n\r\n        // Create the certificate\r\n        Certificate memory cert = Certificate({\r\n            uid: _uid,\r\n            candidate_name: _candidate_name,\r\n            speciality: _speciality,\r\n            school_name: _school_name,\r\n            ipfs_hash: _ipfs_hash\r\n        });\r\n\r\n        // Store the certificate in the mapping\r\n        certificates[_ipfs_hash] = cert;\r\n\r\n        // Emit an event\r\n        emit CertificateMinted(\r\n            _ipfs_hash,\r\n            _candidate_name,\r\n            _speciality,\r\n            _school_name\r\n        );\r\n\r\n        return _ipfs_hash;\r\n    }\r\n\r\n    // Retrieve certificate details\r\n    function getCertificateDetails(string memory _ipfs_hash)\r\n        public\r\n        view\r\n        returns (\r\n            string memory uid,\r\n            string memory candidate_name,\r\n            string memory speciality,\r\n            string memory school_name,\r\n            string memory ipfs_hash\r\n        )\r\n    {\r\n        Certificate memory cert = certificates[_ipfs_hash];\r\n\r\n        // Ensure the certificate with the given IPFS hash exists\r\n        require(bytes(certificates[_ipfs_hash].ipfs_hash).length != 0, \"Certificate with this IPFS hash does not exist\");\r\n\r\n        // Return the values from the certificate\r\n        return (\r\n            cert.uid,\r\n            cert.candidate_name,\r\n            cert.speciality,\r\n            cert.school_name,\r\n            cert.ipfs_hash\r\n        );\r\n    }\r\n\r\n    // Check if a certificate exists based on IPFS hash\r\n    function isVerified(string memory _ipfs_hash) public view returns (bool) {\r\n        // Return true if the certificate exists, otherwise false\r\n        return bytes(certificates[_ipfs_hash].ipfs_hash).length != 0;\r\n    }\r\n}\r\n",
  "sourcePath": "C:\\Users\\dardo\\PycharmProjects\\blockchain\\contracts\\CertificationNFT.sol",
  "compiler": {
    "name": "solc",
    "version": "0.8.21+commit.d9974bed.Emscripten.clang"
  },
  "schemaVersion": "3.4.16",
  "updatedAt": "2024-12-17T23:07:59.953Z",
  "networkType": "ethereum",
  "devdoc": {
    "errors": {
      "ERC721IncorrectOwner(address,uint256,address)": [
        {
          "details": "Indicates an error related to the ownership over a particular token. Used in transfers.",
          "params": {
            "owner": "Address of the current owner of a token.",
            "sender": "Address whose tokens are being transferred.",
            "tokenId": "Identifier number of a token."
          }
        }
      ],
      "ERC721InsufficientApproval(address,uint256)": [
        {
          "details": "Indicates a failure with the `operator`s approval. Used in transfers.",
          "params": {
            "operator": "Address that may be allowed to operate on tokens without being their owner.",
            "tokenId": "Identifier number of a token."
          }
        }
      ],
      "ERC721InvalidApprover(address)": [
        {
          "details": "Indicates a failure with the `approver` of a token to be approved. Used in approvals.",
          "params": {
            "approver": "Address initiating an approval operation."
          }
        }
      ],
      "ERC721InvalidOperator(address)": [
        {
          "details": "Indicates a failure with the `operator` to be approved. Used in approvals.",
          "params": {
            "operator": "Address that may be allowed to operate on tokens without being their owner."
          }
        }
      ],
      "ERC721InvalidOwner(address)": [
        {
          "details": "Indicates that an address can't be an owner. For example, `address(0)` is a forbidden owner in ERC-20. Used in balance queries.",
          "params": {
            "owner": "Address of the current owner of a token."
          }
        }
      ],
      "ERC721InvalidReceiver(address)": [
        {
          "details": "Indicates a failure with the token `receiver`. Used in transfers.",
          "params": {
            "receiver": "Address to which tokens are being transferred."
          }
        }
      ],
      "ERC721InvalidSender(address)": [
        {
          "details": "Indicates a failure with the token `sender`. Used in transfers.",
          "params": {
            "sender": "Address whose tokens are being transferred."
          }
        }
      ],
      "ERC721NonexistentToken(uint256)": [
        {
          "details": "Indicates a `tokenId` whose `owner` is the zero address.",
          "params": {
            "tokenId": "Identifier number of a token."
          }
        }
      ]
    },
    "events": {
      "Approval(address,address,uint256)": {
        "details": "Emitted when `owner` enables `approved` to manage the `tokenId` token."
      },
      "ApprovalForAll(address,address,bool)": {
        "details": "Emitted when `owner` enables or disables (`approved`) `operator` to manage all of its assets."
      },
      "BatchMetadataUpdate(uint256,uint256)": {
        "details": "This event emits when the metadata of a range of tokens is changed. So that the third-party platforms such as NFT market could timely update the images and related attributes of the NFTs."
      },
      "MetadataUpdate(uint256)": {
        "details": "This event emits when the metadata of a token is changed. So that the third-party platforms such as NFT market could timely update the images and related attributes of the NFT."
      },
      "Transfer(address,address,uint256)": {
        "details": "Emitted when `tokenId` token is transferred from `from` to `to`."
      }
    },
    "kind": "dev",
    "methods": {
      "approve(address,uint256)": {
        "details": "See {IERC721-approve}."
      },
      "balanceOf(address)": {
        "details": "See {IERC721-balanceOf}."
      },
      "getApproved(uint256)": {
        "details": "See {IERC721-getApproved}."
      },
      "isApprovedForAll(address,address)": {
        "details": "See {IERC721-isApprovedForAll}."
      },
      "name()": {
        "details": "See {IERC721Metadata-name}."
      },
      "ownerOf(uint256)": {
        "details": "See {IERC721-ownerOf}."
      },
      "safeTransferFrom(address,address,uint256)": {
        "details": "See {IERC721-safeTransferFrom}."
      },
      "safeTransferFrom(address,address,uint256,bytes)": {
        "details": "See {IERC721-safeTransferFrom}."
      },
      "setApprovalForAll(address,bool)": {
        "details": "See {IERC721-setApprovalForAll}."
      },
      "supportsInterface(bytes4)": {
        "details": "See {IERC165-supportsInterface}"
      },
      "symbol()": {
        "details": "See {IERC721Metadata-symbol}."
      },
      "tokenURI(uint256)": {
        "details": "See {IERC721Metadata-tokenURI}."
      },
      "transferFrom(address,address,uint256)": {
        "details": "See {IERC721-transferFrom}."
      }
    },
    "version": 1
  },
  "userdoc": {
    "kind": "user",
    "methods": {},
    "version": 1
  }
}